{
  "contractName": "Purchase",
  "abi": [
    {
      "inputs": [],
      "stateMutability": "payable",
      "type": "constructor"
    },
    {
      "anonymous": false,
      "inputs": [],
      "name": "Aborted",
      "type": "event"
    },
    {
      "anonymous": false,
      "inputs": [],
      "name": "ItemReceived",
      "type": "event"
    },
    {
      "anonymous": false,
      "inputs": [],
      "name": "PurchaseConfirmed",
      "type": "event"
    },
    {
      "anonymous": false,
      "inputs": [],
      "name": "SellerRefunded",
      "type": "event"
    },
    {
      "inputs": [],
      "name": "buyer",
      "outputs": [
        {
          "internalType": "address payable",
          "name": "",
          "type": "address"
        }
      ],
      "stateMutability": "view",
      "type": "function"
    },
    {
      "inputs": [],
      "name": "seller",
      "outputs": [
        {
          "internalType": "address payable",
          "name": "",
          "type": "address"
        }
      ],
      "stateMutability": "view",
      "type": "function"
    },
    {
      "inputs": [],
      "name": "state",
      "outputs": [
        {
          "internalType": "enum Purchase.State",
          "name": "",
          "type": "uint8"
        }
      ],
      "stateMutability": "view",
      "type": "function"
    },
    {
      "inputs": [],
      "name": "value",
      "outputs": [
        {
          "internalType": "uint256",
          "name": "",
          "type": "uint256"
        }
      ],
      "stateMutability": "view",
      "type": "function"
    },
    {
      "inputs": [],
      "name": "abort",
      "outputs": [],
      "stateMutability": "nonpayable",
      "type": "function"
    },
    {
      "inputs": [],
      "name": "confirmPurchase",
      "outputs": [],
      "stateMutability": "payable",
      "type": "function"
    },
    {
      "inputs": [],
      "name": "confirmReceived",
      "outputs": [],
      "stateMutability": "nonpayable",
      "type": "function"
    },
    {
      "inputs": [],
      "name": "refundSeller",
      "outputs": [],
      "stateMutability": "nonpayable",
      "type": "function"
    }
  ],
  "bytecode": "0x608060405233600160006101000a81548173ffffffffffffffffffffffffffffffffffffffff021916908373ffffffffffffffffffffffffffffffffffffffff1602179055506002346200005491906200010f565b6000819055503460005460026200006c919062000147565b14620000af576040517f08c379a0000000000000000000000000000000000000000000000000000000008152600401620000a690620000dc565b60405180910390fd5b62000239565b6000620000c4601583620000fe565b9150620000d18262000210565b602082019050919050565b60006020820190508181036000830152620000f781620000b5565b9050919050565b600082825260208201905092915050565b60006200011c82620001a8565b91506200012983620001a8565b9250826200013c576200013b620001e1565b5b828204905092915050565b60006200015482620001a8565b91506200016183620001a8565b9250817fffffffffffffffffffffffffffffffffffffffffffffffffffffffffffffffff04831182151516156200019d576200019c620001b2565b5b828202905092915050565b6000819050919050565b7f4e487b7100000000000000000000000000000000000000000000000000000000600052601160045260246000fd5b7f4e487b7100000000000000000000000000000000000000000000000000000000600052601260045260246000fd5b7f56616c75652068617320746f206265206576656e2e0000000000000000000000600082015250565b610d7980620002496000396000f3fe60806040526004361061007b5760003560e01c806373fac6f01161004e57806373fac6f014610118578063c19d93fb1461012f578063c7981b1b1461015a578063d6960697146101715761007b565b806308551a531461008057806335a063b4146100ab5780633fa4f245146100c25780637150d8ae146100ed575b600080fd5b34801561008c57600080fd5b5061009561017b565b6040516100a29190610ad9565b60405180910390f35b3480156100b757600080fd5b506100c06101a1565b005b3480156100ce57600080fd5b506100d76103dd565b6040516100e49190610b6f565b60405180910390f35b3480156100f957600080fd5b506101026103e3565b60405161010f9190610ad9565b60405180910390f35b34801561012457600080fd5b5061012d610409565b005b34801561013b57600080fd5b50610144610646565b6040516101519190610af4565b60405180910390f35b34801561016657600080fd5b5061016f610659565b005b6101796108a3565b005b600160009054906101000a900473ffffffffffffffffffffffffffffffffffffffff1681565b600160009054906101000a900473ffffffffffffffffffffffffffffffffffffffff1673ffffffffffffffffffffffffffffffffffffffff163373ffffffffffffffffffffffffffffffffffffffff1614610231576040517f08c379a000000000000000000000000000000000000000000000000000000000815260040161022890610b4f565b60405180910390fd5b600080600381111561026c577f4e487b7100000000000000000000000000000000000000000000000000000000600052602160045260246000fd5b600260149054906101000a900460ff1660038111156102b4577f4e487b7100000000000000000000000000000000000000000000000000000000600052602160045260246000fd5b146102f4576040517f08c379a00000000000000000000000000000000000000000000000000000000081526004016102eb90610b2f565b60405180910390fd5b7f72c874aeff0b183a56e2b79c71b46e1aed4dee5e09862134b8821ba2fddbf8bf60405160405180910390a16003600260146101000a81548160ff0219169083600381111561036c577f4e487b7100000000000000000000000000000000000000000000000000000000600052602160045260246000fd5b0217905550600160009054906101000a900473ffffffffffffffffffffffffffffffffffffffff1673ffffffffffffffffffffffffffffffffffffffff166108fc479081150290604051600060405180830381858888f193505050501580156103d9573d6000803e3d6000fd5b5050565b60005481565b600260009054906101000a900473ffffffffffffffffffffffffffffffffffffffff1681565b600260009054906101000a900473ffffffffffffffffffffffffffffffffffffffff1673ffffffffffffffffffffffffffffffffffffffff163373ffffffffffffffffffffffffffffffffffffffff1614610499576040517f08c379a000000000000000000000000000000000000000000000000000000000815260040161049090610b0f565b60405180910390fd5b60018060038111156104d4577f4e487b7100000000000000000000000000000000000000000000000000000000600052602160045260246000fd5b600260149054906101000a900460ff16600381111561051c577f4e487b7100000000000000000000000000000000000000000000000000000000600052602160045260246000fd5b1461055c576040517f08c379a000000000000000000000000000000000000000000000000000000000815260040161055390610b2f565b60405180910390fd5b7fe89152acd703c9d8c7d28829d443260b411454d45394e7995815140c8cbcbcf760405160405180910390a160028060146101000a81548160ff021916908360038111156105d3577f4e487b7100000000000000000000000000000000000000000000000000000000600052602160045260246000fd5b0217905550600260009054906101000a900473ffffffffffffffffffffffffffffffffffffffff1673ffffffffffffffffffffffffffffffffffffffff166108fc6000549081150290604051600060405180830381858888f19350505050158015610642573d6000803e3d6000fd5b5050565b600260149054906101000a900460ff1681565b600160009054906101000a900473ffffffffffffffffffffffffffffffffffffffff1673ffffffffffffffffffffffffffffffffffffffff163373ffffffffffffffffffffffffffffffffffffffff16146106e9576040517f08c379a00000000000000000000000000000000000000000000000000000000081526004016106e090610b4f565b60405180910390fd5b6002806003811115610724577f4e487b7100000000000000000000000000000000000000000000000000000000600052602160045260246000fd5b600260149054906101000a900460ff16600381111561076c577f4e487b7100000000000000000000000000000000000000000000000000000000600052602160045260246000fd5b146107ac576040517f08c379a00000000000000000000000000000000000000000000000000000000081526004016107a390610b2f565b60405180910390fd5b7ffda69c32bcfdba840a167777906b173b607eb8b4d8853b97a80d26e613d858db60405160405180910390a16003600260146101000a81548160ff02191690836003811115610824577f4e487b7100000000000000000000000000000000000000000000000000000000600052602160045260246000fd5b0217905550600160009054906101000a900473ffffffffffffffffffffffffffffffffffffffff1673ffffffffffffffffffffffffffffffffffffffff166108fc60005460036108749190610b9b565b9081150290604051600060405180830381858888f1935050505015801561089f573d6000803e3d6000fd5b5050565b60008060038111156108de577f4e487b7100000000000000000000000000000000000000000000000000000000600052602160045260246000fd5b600260149054906101000a900460ff166003811115610926577f4e487b7100000000000000000000000000000000000000000000000000000000600052602160045260246000fd5b14610966576040517f08c379a000000000000000000000000000000000000000000000000000000000815260040161095d90610b2f565b60405180910390fd5b60005460026109759190610b9b565b34148061098157600080fd5b7fd5d55c8a68912e9a110618df8d5e2e83b8d83211c57a8ddd1203df92885dc88160405160405180910390a133600260006101000a81548173ffffffffffffffffffffffffffffffffffffffff021916908373ffffffffffffffffffffffffffffffffffffffff1602179055506001600260146101000a81548160ff02191690836003811115610a3a577f4e487b7100000000000000000000000000000000000000000000000000000000600052602160045260246000fd5b02179055505050565b610a4c81610bf5565b82525050565b610a5b81610c44565b82525050565b6000610a6e601983610b8a565b9150610a7982610cb4565b602082019050919050565b6000610a91600e83610b8a565b9150610a9c82610cdd565b602082019050919050565b6000610ab4601a83610b8a565b9150610abf82610d06565b602082019050919050565b610ad381610c3a565b82525050565b6000602082019050610aee6000830184610a43565b92915050565b6000602082019050610b096000830184610a52565b92915050565b60006020820190508181036000830152610b2881610a61565b9050919050565b60006020820190508181036000830152610b4881610a84565b9050919050565b60006020820190508181036000830152610b6881610aa7565b9050919050565b6000602082019050610b846000830184610aca565b92915050565b600082825260208201905092915050565b6000610ba682610c3a565b9150610bb183610c3a565b9250817fffffffffffffffffffffffffffffffffffffffffffffffffffffffffffffffff0483118215151615610bea57610be9610c56565b5b828202905092915050565b6000610c0082610c1a565b9050919050565b6000819050610c1582610d2f565b919050565b600073ffffffffffffffffffffffffffffffffffffffff82169050919050565b6000819050919050565b6000610c4f82610c07565b9050919050565b7f4e487b7100000000000000000000000000000000000000000000000000000000600052601160045260246000fd5b7f4e487b7100000000000000000000000000000000000000000000000000000000600052602160045260246000fd5b7f4f6e6c792062757965722063616e2063616c6c20746869732e00000000000000600082015250565b7f496e76616c69642073746174652e000000000000000000000000000000000000600082015250565b7f4f6e6c792073656c6c65722063616e2063616c6c20746869732e000000000000600082015250565b60048110610d4057610d3f610c85565b5b5056fea264697066735822122033fecc029fbbecbafbccd4d22eb44b0c365b6d2b5bea6d3e374a9f0c7c4513af64736f6c63430008010033",
  "immutableReferences": {},
  "source": "// SPDX-License-Identifier: GPL-3.0\npragma solidity >=0.4.22 <0.9.0;\n\ncontract Purchase {\n    uint public value;\n    address payable public seller;\n    address payable public buyer;\n\n    enum State { Created, Locked, Release, Inactive }\n    // The state variable has a default value of the first member, `State.created`\n    State public state;\n\n    modifier condition(bool _condition) {\n        require(_condition);\n        _;\n    }\n\n    modifier onlyBuyer() {\n        require(\n            msg.sender == buyer,\n            \"Only buyer can call this.\"\n        );\n        _;\n    }\n\n    modifier onlySeller() {\n        require(\n            msg.sender == seller,\n            \"Only seller can call this.\"\n        );\n        _;\n    }\n\n    modifier inState(State _state) {\n        require(\n            state == _state,\n            \"Invalid state.\"\n        );\n        _;\n    }\n\n    event Aborted();\n    event PurchaseConfirmed();\n    event ItemReceived();\n    event SellerRefunded();\n\n    // Ensure that `msg.value` is an even number.\n    // Division will truncate if it is an odd number.\n    // Check via multiplication that it wasn't an odd number.\n    constructor() payable {\n        seller = payable(msg.sender);\n        value = msg.value / 2;\n        require((2 * value) == msg.value, \"Value has to be even.\");\n    }\n\n    /// Abort the purchase and reclaim the ether.\n    /// Can only be called by the seller before\n    /// the contract is locked.\n    function abort()\n        public\n        onlySeller\n        inState(State.Created)\n    {\n        emit Aborted();\n        state = State.Inactive;\n        // We use transfer here directly. It is\n        // reentrancy-safe, because it is the\n        // last call in this function and we\n        // already changed the state.\n        seller.transfer(address(this).balance);\n    }\n\n    /// Confirm the purchase as buyer.\n    /// Transaction has to include `2 * value` ether.\n    /// The ether will be locked until confirmReceived\n    /// is called.\n    function confirmPurchase()\n        public\n        inState(State.Created)\n        condition(msg.value == (2 * value))\n        payable\n    {\n        emit PurchaseConfirmed();\n        buyer = payable(msg.sender);\n        state = State.Locked;\n    }\n\n    /// Confirm that you (the buyer) received the item.\n    /// This will release the locked ether.\n    function confirmReceived()\n        public\n        onlyBuyer\n        inState(State.Locked)\n    {\n        emit ItemReceived();\n        // It is important to change the state first because\n        // otherwise, the contracts called using `send` below\n        // can call in again here.\n        state = State.Release;\n\n        buyer.transfer(value);\n    }\n\n    /// This function refunds the seller, i.e.\n    /// pays back the locked funds of the seller.\n    function refundSeller()\n        public\n        onlySeller\n        inState(State.Release)\n    {\n        emit SellerRefunded();\n        // It is important to change the state first because\n        // otherwise, the contracts called using `send` below\n        // can call in again here.\n        state = State.Inactive;\n\n        seller.transfer(3 * value);\n    }\n}",
  "sourcePath": "/home/kyle.noll/playground/Ethereum/exercises/Purchase/contracts/Purchase.sol",
  "compiler": {
    "name": "solc",
    "version": "0.8.1+commit.df193b15.Emscripten.clang"
  },
  "schemaVersion": "3.3.3",
  "updatedAt": "2021-02-24T03:57:06.343Z",
  "devdoc": {
    "kind": "dev",
    "methods": {},
    "version": 1
  },
  "userdoc": {
    "kind": "user",
    "methods": {
      "abort()": {
        "notice": "Abort the purchase and reclaim the ether. Can only be called by the seller before the contract is locked."
      },
      "confirmPurchase()": {
        "notice": "Confirm the purchase as buyer. Transaction has to include `2 * value` ether. The ether will be locked until confirmReceived is called."
      },
      "confirmReceived()": {
        "notice": "Confirm that you (the buyer) received the item. This will release the locked ether."
      },
      "refundSeller()": {
        "notice": "This function refunds the seller, i.e. pays back the locked funds of the seller."
      }
    },
    "version": 1
  }
}