{
  "contractName": "SimpleAuction",
  "abi": [
    {
      "inputs": [
        {
          "internalType": "uint256",
          "name": "auctionLength",
          "type": "uint256"
        },
        {
          "internalType": "address payable",
          "name": "_beneficiary",
          "type": "address"
        }
      ],
      "stateMutability": "nonpayable",
      "type": "constructor"
    },
    {
      "anonymous": false,
      "inputs": [
        {
          "indexed": false,
          "internalType": "address",
          "name": "winner",
          "type": "address"
        },
        {
          "indexed": false,
          "internalType": "uint256",
          "name": "amount",
          "type": "uint256"
        }
      ],
      "name": "AuctionEnded",
      "type": "event"
    },
    {
      "anonymous": false,
      "inputs": [
        {
          "indexed": false,
          "internalType": "address",
          "name": "bidder",
          "type": "address"
        },
        {
          "indexed": false,
          "internalType": "uint256",
          "name": "amount",
          "type": "uint256"
        }
      ],
      "name": "HighestBidIncreased",
      "type": "event"
    },
    {
      "inputs": [],
      "name": "auctionEndTime",
      "outputs": [
        {
          "internalType": "uint256",
          "name": "",
          "type": "uint256"
        }
      ],
      "stateMutability": "view",
      "type": "function"
    },
    {
      "inputs": [],
      "name": "beneficiary",
      "outputs": [
        {
          "internalType": "address payable",
          "name": "",
          "type": "address"
        }
      ],
      "stateMutability": "view",
      "type": "function"
    },
    {
      "inputs": [],
      "name": "highestBid",
      "outputs": [
        {
          "internalType": "uint256",
          "name": "",
          "type": "uint256"
        }
      ],
      "stateMutability": "view",
      "type": "function"
    },
    {
      "inputs": [],
      "name": "highestBidder",
      "outputs": [
        {
          "internalType": "address",
          "name": "",
          "type": "address"
        }
      ],
      "stateMutability": "view",
      "type": "function"
    },
    {
      "inputs": [],
      "name": "bid",
      "outputs": [],
      "stateMutability": "payable",
      "type": "function"
    },
    {
      "inputs": [],
      "name": "withdraw",
      "outputs": [],
      "stateMutability": "nonpayable",
      "type": "function"
    },
    {
      "inputs": [],
      "name": "auctionEnd",
      "outputs": [],
      "stateMutability": "nonpayable",
      "type": "function"
    }
  ],
  "bytecode": "0x60806040523480156200001157600080fd5b5060405162000cbb38038062000cbb8339818101604052810190620000379190620000c1565b814262000045919062000102565b600181905550806000806101000a81548173ffffffffffffffffffffffffffffffffffffffff021916908373ffffffffffffffffffffffffffffffffffffffff160217905550505062000200565b600081519050620000a481620001cc565b92915050565b600081519050620000bb81620001e6565b92915050565b60008060408385031215620000d557600080fd5b6000620000e585828601620000aa565b9250506020620000f88582860162000093565b9150509250929050565b60006200010f8262000193565b91506200011c8362000193565b9250827fffffffffffffffffffffffffffffffffffffffffffffffffffffffffffffffff038211156200015457620001536200019d565b5b828201905092915050565b60006200016c8262000173565b9050919050565b600073ffffffffffffffffffffffffffffffffffffffff82169050919050565b6000819050919050565b7f4e487b7100000000000000000000000000000000000000000000000000000000600052601160045260246000fd5b620001d7816200015f565b8114620001e357600080fd5b50565b620001f18162000193565b8114620001fd57600080fd5b50565b610aab80620002106000396000f3fe6080604052600436106100705760003560e01c80633ccfd60b1161004e5780633ccfd60b146100c15780634b449cba146100d857806391f9015714610103578063d57bde791461012e57610070565b80631998aeef146100755780632a24f46c1461007f57806338af3eed14610096575b600080fd5b61007d610159565b005b34801561008b57600080fd5b506100946102ea565b005b3480156100a257600080fd5b506100ab6104c9565b6040516100b89190610791565b60405180910390f35b3480156100cd57600080fd5b506100d66104ed565b005b3480156100e457600080fd5b506100ed610630565b6040516100fa9190610875565b60405180910390f35b34801561010f57600080fd5b50610118610636565b6040516101259190610776565b60405180910390f35b34801561013a57600080fd5b5061014361065c565b6040516101509190610875565b60405180910390f35b600254341161019d576040517f08c379a000000000000000000000000000000000000000000000000000000000815260040161019490610815565b60405180910390fd5b6001544211156101e2576040517f08c379a00000000000000000000000000000000000000000000000000000000081526004016101d9906107f5565b60405180910390fd5b6000600254146102675760025460046000600360009054906101000a900473ffffffffffffffffffffffffffffffffffffffff1673ffffffffffffffffffffffffffffffffffffffff1673ffffffffffffffffffffffffffffffffffffffff168152602001908152602001600020600082825461025f91906108ac565b925050819055505b3460028190555033600360006101000a81548173ffffffffffffffffffffffffffffffffffffffff021916908373ffffffffffffffffffffffffffffffffffffffff1602179055507ff4757a49b326036464bec6fe419a4ae38c8a02ce3e68bf0809674f6aab8ad30033346040516102e09291906107ac565b60405180910390a1565b600360149054906101000a900460ff161561033a576040517f08c379a000000000000000000000000000000000000000000000000000000000815260040161033190610855565b60405180910390fd5b60015442101561037f576040517f08c379a000000000000000000000000000000000000000000000000000000000815260040161037690610835565b60405180910390fd5b6001600360146101000a81548160ff0219169083151502179055507fdaec4582d5d9595688c8c98545fdd1c696d41c6aeaeb636737e84ed2f5c00eda600360009054906101000a900473ffffffffffffffffffffffffffffffffffffffff166002546040516103ef9291906107ac565b60405180910390a160008060009054906101000a900473ffffffffffffffffffffffffffffffffffffffff1673ffffffffffffffffffffffffffffffffffffffff1660025460405161044090610761565b60006040518083038185875af1925050503d806000811461047d576040519150601f19603f3d011682016040523d82523d6000602084013e610482565b606091505b50509050806104c6576040517f08c379a00000000000000000000000000000000000000000000000000000000081526004016104bd906107d5565b60405180910390fd5b50565b60008054906101000a900473ffffffffffffffffffffffffffffffffffffffff1681565b6000600460003373ffffffffffffffffffffffffffffffffffffffff1673ffffffffffffffffffffffffffffffffffffffff168152602001908152602001600020549050600081111561062d576000600460003373ffffffffffffffffffffffffffffffffffffffff1673ffffffffffffffffffffffffffffffffffffffff1681526020019081526020016000208190555060003373ffffffffffffffffffffffffffffffffffffffff16826040516105a590610761565b60006040518083038185875af1925050503d80600081146105e2576040519150601f19603f3d011682016040523d82523d6000602084013e6105e7565b606091505b505090508061062b576040517f08c379a0000000000000000000000000000000000000000000000000000000008152600401610622906107d5565b60405180910390fd5b505b50565b60015481565b600360009054906101000a900473ffffffffffffffffffffffffffffffffffffffff1681565b60025481565b61066b81610914565b82525050565b61067a81610902565b82525050565b600061068d60148361089b565b91506106988261097f565b602082019050919050565b60006106b060168361089b565b91506106bb826109a8565b602082019050919050565b60006106d3601e8361089b565b91506106de826109d1565b602082019050919050565b60006106f660168361089b565b9150610701826109fa565b602082019050919050565b600061071960238361089b565b915061072482610a23565b604082019050919050565b600061073c600083610890565b915061074782610a72565b600082019050919050565b61075b81610946565b82525050565b600061076c8261072f565b9150819050919050565b600060208201905061078b6000830184610671565b92915050565b60006020820190506107a66000830184610662565b92915050565b60006040820190506107c16000830185610671565b6107ce6020830184610752565b9392505050565b600060208201905081810360008301526107ee81610680565b9050919050565b6000602082019050818103600083015261080e816106a3565b9050919050565b6000602082019050818103600083015261082e816106c6565b9050919050565b6000602082019050818103600083015261084e816106e9565b9050919050565b6000602082019050818103600083015261086e8161070c565b9050919050565b600060208201905061088a6000830184610752565b92915050565b600081905092915050565b600082825260208201905092915050565b60006108b782610946565b91506108c283610946565b9250827fffffffffffffffffffffffffffffffffffffffffffffffffffffffffffffffff038211156108f7576108f6610950565b5b828201905092915050565b600061090d82610926565b9050919050565b600061091f82610926565b9050919050565b600073ffffffffffffffffffffffffffffffffffffffff82169050919050565b6000819050919050565b7f4e487b7100000000000000000000000000000000000000000000000000000000600052601160045260246000fd5b7f4661696c656420746f2073656e64204574686572000000000000000000000000600082015250565b7f41756374696f6e20616c726561647920656e6465642e00000000000000000000600082015250565b7f546865726520616c7265616479206973206120686967686572206269642e0000600082015250565b7f41756374696f6e206e6f742079657420656e6465642e00000000000000000000600082015250565b7f61756374696f6e456e642068617320616c7265616479206265656e2063616c6c60008201527f65642e0000000000000000000000000000000000000000000000000000000000602082015250565b5056fea2646970667358221220d8304872c8d8ae051da402b23431466b8d0df661625bf140c2c7acb8572c4dad64736f6c63430008010033",
  "immutableReferences": {},
  "source": "// SPDX-License-Identifier: GPL-3.0\npragma solidity >=0.4.22 <=0.8.1;\n\ncontract SimpleAuction {\n\n    // public properties\n    address payable public beneficiary;\n    uint public auctionEndTime;\n    uint public highestBid;\n    address public highestBidder;\n\n    // private properties\n    bool ended;\n\n    mapping(address => uint) pendingReturns;\n\n    // events\n    event HighestBidIncreased(address bidder, uint amount);\n    event AuctionEnded(address winner, uint amount);\n\n    constructor(uint auctionLength, address payable _beneficiary) {\n        auctionEndTime = block.timestamp + auctionLength;\n        beneficiary = _beneficiary;\n    }\n\n    function bid() payable public {\n        require(msg.value > highestBid, \"There already is a higher bid.\");\n        require(block.timestamp <= auctionEndTime, \"Auction already ended.\");\n\n        if (highestBid != 0) {\n            pendingReturns[highestBidder] += highestBid;\n        }\n\n        highestBid = msg.value;\n        highestBidder = msg.sender;\n        \n        emit HighestBidIncreased(msg.sender, msg.value);\n    }\n\n    function withdraw() public {\n        uint amount = pendingReturns[msg.sender];\n        if (amount > 0) {\n            // prevents reentrancy attacks\n            pendingReturns[msg.sender] = 0;\n\n            (bool sent, ) = msg.sender.call{value: amount}(\"\");\n            require(sent, \"Failed to send Ether\");\n        }\n    }\n\n    function auctionEnd() public {\n        require(!ended, \"auctionEnd has already been called.\");\n        require(block.timestamp >= auctionEndTime, \"Auction not yet ended.\");\n\n        ended = true;\n        emit AuctionEnded(highestBidder, highestBid);\n\n        (bool sent, ) = beneficiary.call{value: highestBid}(\"\");\n        require(sent, \"Failed to send Ether\");\n    }\n}",
  "sourcePath": "/home/kyle.noll/playground/Ethereum/exercises/SimpleAuction/contracts/SimpleAuction.sol",
  "compiler": {
    "name": "solc",
    "version": "0.8.1+commit.df193b15.Emscripten.clang"
  },
  "schemaVersion": "3.3.3",
  "updatedAt": "2021-02-20T05:01:36.669Z",
  "devdoc": {
    "kind": "dev",
    "methods": {},
    "version": 1
  },
  "userdoc": {
    "kind": "user",
    "methods": {},
    "version": 1
  }
}